{
  "contractName": "LemonadeStand",
  "abi": [
    {
      "constant": true,
      "inputs": [],
      "name": "owner",
      "outputs": [
        {
          "name": "",
          "type": "address"
        }
      ],
      "payable": false,
      "stateMutability": "view",
      "type": "function",
      "signature": "0x8da5cb5b"
    },
    {
      "inputs": [],
      "payable": false,
      "stateMutability": "nonpayable",
      "type": "constructor",
      "signature": "constructor"
    },
    {
      "anonymous": false,
      "inputs": [
        {
          "indexed": false,
          "name": "skuCount",
          "type": "uint256"
        }
      ],
      "name": "ForSale",
      "type": "event",
      "signature": "0xa96ae0fc3224ebd79eebfe54bd130cc9cb94416cddd1f2386115e00b72532468"
    },
    {
      "anonymous": false,
      "inputs": [
        {
          "indexed": false,
          "name": "sku",
          "type": "uint256"
        },
        {
          "indexed": false,
          "name": "change",
          "type": "uint256"
        }
      ],
      "name": "Sold",
      "type": "event",
      "signature": "0x7ea63cabf285309a7f2750def3e745dd81fc85e39926c5b47f0bd45938e1a412"
    },
    {
      "anonymous": false,
      "inputs": [
        {
          "indexed": false,
          "name": "sku",
          "type": "uint256"
        }
      ],
      "name": "Shipped",
      "type": "event",
      "signature": "0xf00b9a5725b80c54016f42114f6ed7792d22eecb116011c4afac29c57bef6c95"
    },
    {
      "constant": false,
      "inputs": [
        {
          "name": "_name",
          "type": "string"
        },
        {
          "name": "_price",
          "type": "uint256"
        }
      ],
      "name": "addItem",
      "outputs": [],
      "payable": false,
      "stateMutability": "nonpayable",
      "type": "function",
      "signature": "0x62d6bbdf"
    },
    {
      "constant": false,
      "inputs": [
        {
          "name": "sku",
          "type": "uint256"
        }
      ],
      "name": "buyItem",
      "outputs": [],
      "payable": true,
      "stateMutability": "payable",
      "type": "function",
      "signature": "0xe7fb74c7"
    },
    {
      "constant": false,
      "inputs": [
        {
          "name": "sku",
          "type": "uint256"
        }
      ],
      "name": "shipItem",
      "outputs": [],
      "payable": false,
      "stateMutability": "nonpayable",
      "type": "function",
      "signature": "0xf61c899a"
    },
    {
      "constant": true,
      "inputs": [
        {
          "name": "_sku",
          "type": "uint256"
        }
      ],
      "name": "fetchItem",
      "outputs": [
        {
          "name": "name",
          "type": "string"
        },
        {
          "name": "sku",
          "type": "uint256"
        },
        {
          "name": "price",
          "type": "uint256"
        },
        {
          "name": "stateIs",
          "type": "string"
        },
        {
          "name": "seller",
          "type": "address"
        },
        {
          "name": "buyer",
          "type": "address"
        }
      ],
      "payable": false,
      "stateMutability": "view",
      "type": "function",
      "signature": "0xad4b9cfb"
    }
  ],
  "bytecode": "0x608060405234801561001057600080fd5b50336000806101000a81548173ffffffffffffffffffffffffffffffffffffffff021916908373ffffffffffffffffffffffffffffffffffffffff1602179055506000600181905550610dce806100686000396000f30060806040526004361061006d576000357c0100000000000000000000000000000000000000000000000000000000900463ffffffff16806362d6bbdf146100725780638da5cb5b146100e5578063ad4b9cfb1461013c578063e7fb74c7146102c2578063f61c899a146102e2575b600080fd5b34801561007e57600080fd5b506100e3600480360381019080803590602001908201803590602001908080601f01602080910402602001604051908101604052809392919081815260200183838082843782019150505050505091929192908035906020019092919050505061030f565b005b3480156100f157600080fd5b506100fa610584565b604051808273ffffffffffffffffffffffffffffffffffffffff1673ffffffffffffffffffffffffffffffffffffffff16815260200191505060405180910390f35b34801561014857600080fd5b50610167600480360381019080803590602001909291905050506105a9565b6040518080602001878152602001868152602001806020018573ffffffffffffffffffffffffffffffffffffffff1673ffffffffffffffffffffffffffffffffffffffff1681526020018473ffffffffffffffffffffffffffffffffffffffff1673ffffffffffffffffffffffffffffffffffffffff168152602001838103835289818151815260200191508051906020019080838360005b8381101561021b578082015181840152602081019050610200565b50505050905090810190601f1680156102485780820380516001836020036101000a031916815260200191505b50838103825286818151815260200191508051906020019080838360005b83811015610281578082015181840152602081019050610266565b50505050905090810190601f1680156102ae5780820380516001836020036101000a031916815260200191505b509850505050505050505060405180910390f35b6102e0600480360381019080803590602001909291905050506107c9565b005b3480156102ee57600080fd5b5061030d60048036038101908080359060200190929190505050610afe565b005b6000809054906101000a900473ffffffffffffffffffffffffffffffffffffffff1673ffffffffffffffffffffffffffffffffffffffff163373ffffffffffffffffffffffffffffffffffffffff161415156103d3576040517f08c379a000000000000000000000000000000000000000000000000000000000815260040180806020018281038252600d8152602001807f6d757374206265206f776e65720000000000000000000000000000000000000081525060200191505060405180910390fd5b60018054016001819055507fa96ae0fc3224ebd79eebfe54bd130cc9cb94416cddd1f2386115e00b725324686001546040518082815260200191505060405180910390a160c06040519081016040528083815260200160015481526020018281526020016000600281111561044457fe5b81526020013373ffffffffffffffffffffffffffffffffffffffff168152602001600073ffffffffffffffffffffffffffffffffffffffff1681525060026000600154815260200190815260200160002060008201518160000190805190602001906104b1929190610cfd565b50602082015181600101556040820151816002015560608201518160030160006101000a81548160ff021916908360028111156104ea57fe5b021790555060808201518160030160016101000a81548173ffffffffffffffffffffffffffffffffffffffff021916908373ffffffffffffffffffffffffffffffffffffffff16021790555060a08201518160040160006101000a81548173ffffffffffffffffffffffffffffffffffffffff021916908373ffffffffffffffffffffffffffffffffffffffff1602179055509050505050565b6000809054906101000a900473ffffffffffffffffffffffffffffffffffffffff1681565b606060008060606000806000600260008981526020019081526020016000206000018054600181600116156101000203166002900480601f01602080910402602001604051908101604052809291908181526020018280546001816001161561010002031660029004801561065f5780601f106106345761010080835404028352916020019161065f565b820191906000526020600020905b81548152906001019060200180831161064257829003601f168201915b5050505050965060026000898152602001908152602001600020600101549550600260008981526020019081526020016000206002015494506002600089815260200190815260200160002060030160019054906101000a900473ffffffffffffffffffffffffffffffffffffffff1692506002600089815260200190815260200160002060040160009054906101000a900473ffffffffffffffffffffffffffffffffffffffff1691506002600089815260200190815260200160002060030160009054906101000a900460ff16600281111561073957fe5b9050600081141561077d576040805190810160405280600881526020017f466f722053616c6500000000000000000000000000000000000000000000000081525093505b60018114156107bf576040805190810160405280600481526020017f536f6c640000000000000000000000000000000000000000000000000000000081525093505b5091939550919395565b600080600083600060028111156107dc57fe5b6002600083815260200190815260200160002060030160009054906101000a900460ff16600281111561080b57fe5b141515610880576040517f08c379a000000000000000000000000000000000000000000000000000000000815260040180806020018281038252600f8152602001807f6973206e6f7420666f722073616c65000000000000000000000000000000000081525060200191505060405180910390fd5b600260008681526020019081526020016000206002015480341015151561090f576040517f08c379a00000000000000000000000000000000000000000000000000000000081526004018080602001828103825260118152602001807f696e737566666963656e742066756e647300000000000000000000000000000081525060200191505060405180910390fd5b33945060026000878152602001908152602001600020600201549350846002600088815260200190815260200160002060040160006101000a81548173ffffffffffffffffffffffffffffffffffffffff021916908373ffffffffffffffffffffffffffffffffffffffff16021790555060016002600088815260200190815260200160002060030160006101000a81548160ff021916908360028111156109b357fe5b021790555083340392506002600087815260200190815260200160002060030160019054906101000a900473ffffffffffffffffffffffffffffffffffffffff1673ffffffffffffffffffffffffffffffffffffffff166108fc859081150290604051600060405180830381858888f19350505050158015610a39573d6000803e3d6000fd5b506002600087815260200190815260200160002060040160009054906101000a900473ffffffffffffffffffffffffffffffffffffffff1673ffffffffffffffffffffffffffffffffffffffff166108fc849081150290604051600060405180830381858888f19350505050158015610ab6573d6000803e3d6000fd5b507f7ea63cabf285309a7f2750def3e745dd81fc85e39926c5b47f0bd45938e1a4128684604051808381526020018281526020019250505060405180910390a1505050505050565b8060016002811115610b0c57fe5b6002600083815260200190815260200160002060030160009054906101000a900460ff166002811115610b3b57fe5b141515610bb0576040517f08c379a000000000000000000000000000000000000000000000000000000000815260040180806020018281038252600b8152602001807f6973206e6f7420736f6c6400000000000000000000000000000000000000000081525060200191505060405180910390fd5b6002600083815260200190815260200160002060030160019054906101000a900473ffffffffffffffffffffffffffffffffffffffff168073ffffffffffffffffffffffffffffffffffffffff163373ffffffffffffffffffffffffffffffffffffffff16141515610c8a576040517f08c379a00000000000000000000000000000000000000000000000000000000081526004018080602001828103825260108152602001807f696e636f72726563742063616c6c65720000000000000000000000000000000081525060200191505060405180910390fd5b600280600085815260200190815260200160002060030160006101000a81548160ff02191690836002811115610cbc57fe5b02179055507ff00b9a5725b80c54016f42114f6ed7792d22eecb116011c4afac29c57bef6c95836040518082815260200191505060405180910390a1505050565b828054600181600116156101000203166002900490600052602060002090601f016020900481019282601f10610d3e57805160ff1916838001178555610d6c565b82800160010185558215610d6c579182015b82811115610d6b578251825591602001919060010190610d50565b5b509050610d799190610d7d565b5090565b610d9f91905b80821115610d9b576000816000905550600101610d83565b5090565b905600a165627a7a72305820b0ae0286b53b9ac3f0ca2f27c530930f161ee8e2eac438cff20724edb54b1af30029",
  "source": "pragma solidity ^0.4.25;\n\ncontract LemonadeStand {\n    address public owner;\n    uint skuCount;\n    enum State { ForSale, Sold, Shipped }\n    struct Item {\n        string name;\n        uint sku;\n        uint price;\n        State state;\n        address seller;\n        address buyer;\n    }\n\n    mapping (uint => Item) items;\n\n    event ForSale(uint skuCount);\n    event Sold(uint sku, uint change);\n    event Shipped(uint sku);\n\n    modifier onlyOwner() {\n        require(msg.sender == owner, \"must be owner\");\n        _;\n    }\n\n    modifier verifyCaller(address _address) {\n        require(msg.sender == _address, \"incorrect caller\");\n        _;\n    }\n\n    modifier paidEnough(uint _price) {\n        require(msg.value >= _price, \"insufficent funds\");\n        _;\n    }\n\n    modifier forSale(uint _sku) {\n        require(items[_sku].state == State.ForSale, \"is not for sale\");\n        _;\n    }\n    modifier sold(uint _sku) {\n        require(items[_sku].state == State.Sold, \"is not sold\");\n        _;\n    }\n\n    constructor () public {\n        owner = msg.sender;\n        skuCount = 0;\n    }\n\n    function addItem(string _name, uint _price) public onlyOwner {\n        skuCount = skuCount + 1;\n        emit ForSale(skuCount);\n        items[skuCount] = Item({\n            name: _name,\n            sku: skuCount,\n            price: _price,\n            state: State.ForSale,\n            seller: msg.sender,\n            buyer: 0\n        });\n    }\n\n    function buyItem(uint sku) \n        public payable forSale(sku) paidEnough(items[sku].price) {\n        address buyer = msg.sender;\n        uint price = items[sku].price;\n        items[sku].buyer = buyer;\n        items[sku].state = State.Sold;\n        uint change = msg.value - price;\n        items[sku].seller.transfer(price);\n        items[sku].buyer.transfer(change);\n        emit Sold(sku, change);\n    }\n\n\n    function shipItem(uint sku) \n        public sold(sku) verifyCaller(items[sku].seller) {\n        items[sku].state = State.Shipped;\n        emit Shipped(sku);\n    }\n    \n    function fetchItem(uint _sku) public view returns (string name, uint sku, \n        uint price, string stateIs, address seller, address buyer) {\n        name = items[_sku].name;\n        sku = items[_sku].sku;\n        price = items[_sku].price;\n        seller = items[_sku].seller;\n        buyer = items[_sku].buyer;\n        uint state;\n        state = uint(items[_sku].state);\n        if (state == 0) {stateIs = \"For Sale\";}\n        if (state == 1) {stateIs = \"Sold\";}\n    }\n}\n",
  "sourcePath": "/Users/carltonjoseph/cj/cj2019/courses/udacity-blockchain-part2/lemonade-example/contracts/LemonadeStand.sol",
  "compiler": {
    "name": "solc",
    "version": "0.4.25+commit.59dbf8f1.Emscripten.clang"
  },
  "schemaVersion": "3.0.1",
  "updatedAt": "2019-02-24T23:22:16.415Z",
  "devdoc": {
    "methods": {}
  },
  "userdoc": {
    "methods": {}
  }
}