{
  "contractName": "LemonadeStand",
  "abi": [
    {
      "inputs": [],
      "payable": false,
      "stateMutability": "nonpayable",
      "type": "constructor",
      "signature": "constructor"
    },
    {
      "anonymous": false,
      "inputs": [
        {
          "indexed": false,
          "name": "skuCount",
          "type": "uint256"
        }
      ],
      "name": "ForSale",
      "type": "event",
      "signature": "0xa96ae0fc3224ebd79eebfe54bd130cc9cb94416cddd1f2386115e00b72532468"
    },
    {
      "anonymous": false,
      "inputs": [
        {
          "indexed": false,
          "name": "sku",
          "type": "uint256"
        }
      ],
      "name": "Sold",
      "type": "event",
      "signature": "0x92f64ca637d023f354075a4be751b169c1a8a9ccb6d33cdd0cb3520543995727"
    },
    {
      "constant": false,
      "inputs": [
        {
          "name": "_name",
          "type": "string"
        },
        {
          "name": "_price",
          "type": "uint256"
        }
      ],
      "name": "addItem",
      "outputs": [],
      "payable": false,
      "stateMutability": "nonpayable",
      "type": "function",
      "signature": "0x62d6bbdf"
    },
    {
      "constant": false,
      "inputs": [
        {
          "name": "sku",
          "type": "uint256"
        }
      ],
      "name": "buyItem",
      "outputs": [],
      "payable": true,
      "stateMutability": "payable",
      "type": "function",
      "signature": "0xe7fb74c7"
    },
    {
      "constant": true,
      "inputs": [
        {
          "name": "_sku",
          "type": "uint256"
        }
      ],
      "name": "fetchItem",
      "outputs": [
        {
          "name": "name",
          "type": "string"
        },
        {
          "name": "sku",
          "type": "uint256"
        },
        {
          "name": "price",
          "type": "uint256"
        },
        {
          "name": "stateIs",
          "type": "string"
        },
        {
          "name": "seller",
          "type": "address"
        },
        {
          "name": "buyer",
          "type": "address"
        }
      ],
      "payable": false,
      "stateMutability": "view",
      "type": "function",
      "signature": "0xad4b9cfb"
    }
  ],
  "bytecode": "0x608060405234801561001057600080fd5b50336000806101000a81548173ffffffffffffffffffffffffffffffffffffffff021916908373ffffffffffffffffffffffffffffffffffffffff1602179055506000600181905550610a83806100686000396000f300608060405260043610610057576000357c0100000000000000000000000000000000000000000000000000000000900463ffffffff16806362d6bbdf1461005c578063ad4b9cfb146100cf578063e7fb74c714610255575b600080fd5b34801561006857600080fd5b506100cd600480360381019080803590602001908201803590602001908080601f016020809104026020016040519081016040528093929190818152602001838380828437820191505050505050919291929080359060200190929190505050610275565b005b3480156100db57600080fd5b506100fa600480360381019080803590602001909291905050506104ea565b6040518080602001878152602001868152602001806020018573ffffffffffffffffffffffffffffffffffffffff1673ffffffffffffffffffffffffffffffffffffffff1681526020018473ffffffffffffffffffffffffffffffffffffffff1673ffffffffffffffffffffffffffffffffffffffff168152602001838103835289818151815260200191508051906020019080838360005b838110156101ae578082015181840152602081019050610193565b50505050905090810190601f1680156101db5780820380516001836020036101000a031916815260200191505b50838103825286818151815260200191508051906020019080838360005b838110156102145780820151818401526020810190506101f9565b50505050905090810190601f1680156102415780820380516001836020036101000a031916815260200191505b509850505050505050505060405180910390f35b6102736004803603810190808035906020019092919050505061070a565b005b6000809054906101000a900473ffffffffffffffffffffffffffffffffffffffff1673ffffffffffffffffffffffffffffffffffffffff163373ffffffffffffffffffffffffffffffffffffffff16141515610339576040517f08c379a000000000000000000000000000000000000000000000000000000000815260040180806020018281038252600d8152602001807f6d757374206265206f776e65720000000000000000000000000000000000000081525060200191505060405180910390fd5b60018054016001819055507fa96ae0fc3224ebd79eebfe54bd130cc9cb94416cddd1f2386115e00b725324686001546040518082815260200191505060405180910390a160c0604051908101604052808381526020016001548152602001828152602001600060018111156103aa57fe5b81526020013373ffffffffffffffffffffffffffffffffffffffff168152602001600073ffffffffffffffffffffffffffffffffffffffff1681525060026000600154815260200190815260200160002060008201518160000190805190602001906104179291906109b2565b50602082015181600101556040820151816002015560608201518160030160006101000a81548160ff0219169083600181111561045057fe5b021790555060808201518160030160016101000a81548173ffffffffffffffffffffffffffffffffffffffff021916908373ffffffffffffffffffffffffffffffffffffffff16021790555060a08201518160040160006101000a81548173ffffffffffffffffffffffffffffffffffffffff021916908373ffffffffffffffffffffffffffffffffffffffff1602179055509050505050565b606060008060606000806000600260008981526020019081526020016000206000018054600181600116156101000203166002900480601f0160208091040260200160405190810160405280929190818152602001828054600181600116156101000203166002900480156105a05780601f10610575576101008083540402835291602001916105a0565b820191906000526020600020905b81548152906001019060200180831161058357829003601f168201915b5050505050965060026000898152602001908152602001600020600101549550600260008981526020019081526020016000206002015494506002600089815260200190815260200160002060030160019054906101000a900473ffffffffffffffffffffffffffffffffffffffff1692506002600089815260200190815260200160002060040160009054906101000a900473ffffffffffffffffffffffffffffffffffffffff1691506002600089815260200190815260200160002060030160009054906101000a900460ff16600181111561067a57fe5b905060008114156106be576040805190810160405280600881526020017f466f722053616c6500000000000000000000000000000000000000000000000081525093505b6001811415610700576040805190810160405280600481526020017f536f6c640000000000000000000000000000000000000000000000000000000081525093505b5091939550919395565b600080826000600181111561071b57fe5b6002600083815260200190815260200160002060030160009054906101000a900460ff16600181111561074a57fe5b1415156107bf576040517f08c379a000000000000000000000000000000000000000000000000000000000815260040180806020018281038252600f8152602001807f6973206e6f7420666f722073616c65000000000000000000000000000000000081525060200191505060405180910390fd5b600260008581526020019081526020016000206002015480341015151561084e576040517f08c379a00000000000000000000000000000000000000000000000000000000081526004018080602001828103825260118152602001807f696e737566666963656e742066756e647300000000000000000000000000000081525060200191505060405180910390fd5b33935060026000868152602001908152602001600020600201549250836002600087815260200190815260200160002060040160006101000a81548173ffffffffffffffffffffffffffffffffffffffff021916908373ffffffffffffffffffffffffffffffffffffffff16021790555060016002600087815260200190815260200160002060030160006101000a81548160ff021916908360018111156108f257fe5b02179055506002600086815260200190815260200160002060030160019054906101000a900473ffffffffffffffffffffffffffffffffffffffff1673ffffffffffffffffffffffffffffffffffffffff166108fc849081150290604051600060405180830381858888f19350505050158015610973573d6000803e3d6000fd5b507f92f64ca637d023f354075a4be751b169c1a8a9ccb6d33cdd0cb3520543995727856040518082815260200191505060405180910390a15050505050565b828054600181600116156101000203166002900490600052602060002090601f016020900481019282601f106109f357805160ff1916838001178555610a21565b82800160010185558215610a21579182015b82811115610a20578251825591602001919060010190610a05565b5b509050610a2e9190610a32565b5090565b610a5491905b80821115610a50576000816000905550600101610a38565b5090565b905600a165627a7a723058202a9397820b400c77215e935cae61978077fe3b115b3e6c8d5c8f5fbc773f1b860029",
  "source": "pragma solidity ^0.4.25;\n\ncontract LemonadeStand {\n    address owner;\n    uint skuCount;\n    enum State { ForSale, Sold }\n    struct Item {\n        string name;\n        uint sku;\n        uint price;\n        State state;\n        address seller;\n        address buyer;\n    }\n\n    mapping (uint => Item) items;\n\n    event ForSale(uint skuCount);\n    event Sold(uint sku);\n\n    modifier onlyOwner() {\n        require(msg.sender == owner, \"must be owner\");\n        _;\n    }\n\n    modifier verifyCaller(address _address) {\n        require(msg.sender == _address, \"incorrect caller\");\n        _;\n    }\n\n    modifier paidEnough(uint _price) {\n        require(msg.value >= _price, \"insufficent funds\");\n        _;\n    }\n\n    modifier forSale(uint _sku) {\n        require(items[_sku].state == State.ForSale, \"is not for sale\");\n        _;\n    }\n    modifier sold(uint _sku) {\n        require(items[_sku].state == State.Sold, \"is not sold\");\n        _;\n    }\n\n    constructor () public {\n        owner = msg.sender;\n        skuCount = 0;\n    }\n\n    function addItem(string _name, uint _price) public onlyOwner {\n        skuCount = skuCount + 1;\n        emit ForSale(skuCount);\n        items[skuCount] = Item({\n            name: _name,\n            sku: skuCount,\n            price: _price,\n            state: State.ForSale,\n            seller: msg.sender,\n            buyer: 0\n        });\n    }\n\n    function buyItem(uint sku) \n        public payable forSale(sku) paidEnough(items[sku].price) {\n        address buyer = msg.sender;\n        uint price = items[sku].price;\n        items[sku].buyer = buyer;\n        items[sku].state = State.Sold;\n        items[sku].seller.transfer(price);\n        emit Sold(sku);\n    }\n\n    function fetchItem(uint _sku) public view returns (string name, uint sku, \n        uint price, string stateIs, address seller, address buyer) {\n        name = items[_sku].name;\n        sku = items[_sku].sku;\n        price = items[_sku].price;\n        seller = items[_sku].seller;\n        buyer = items[_sku].buyer;\n        uint state;\n        state = uint(items[_sku].state);\n        if (state == 0) {stateIs = \"For Sale\";}\n        if (state == 1) {stateIs = \"Sold\";}\n    }\n}\n",
  "sourcePath": "/Users/carltonjoseph/cj/cj2019/courses/udacity-blockchain-part2/lemonade-example/contracts/LemonadeStand.sol",
  "compiler": {
    "name": "solc",
    "version": "0.4.25+commit.59dbf8f1.Emscripten.clang"
  },
  "schemaVersion": "3.0.1",
  "updatedAt": "2019-02-20T21:05:50.014Z",
  "devdoc": {
    "methods": {}
  },
  "userdoc": {
    "methods": {}
  }
}